{
  "_format": "hh-sol-artifact-1",
  "contractName": "DeFiLending",
  "sourceName": "contracts/DeFiLending.sol",
  "abi": [
    {
      "inputs": [
        {
          "internalType": "address",
          "name": "_meeteaToken",
          "type": "address"
        }
      ],
      "stateMutability": "nonpayable",
      "type": "constructor"
    },
    {
      "inputs": [],
      "name": "REWARD_PERCENTAGE",
      "outputs": [
        {
          "internalType": "uint256",
          "name": "",
          "type": "uint256"
        }
      ],
      "stateMutability": "view",
      "type": "function"
    },
    {
      "inputs": [
        {
          "internalType": "address",
          "name": "",
          "type": "address"
        }
      ],
      "name": "balances",
      "outputs": [
        {
          "internalType": "uint256",
          "name": "",
          "type": "uint256"
        }
      ],
      "stateMutability": "view",
      "type": "function"
    },
    {
      "inputs": [
        {
          "internalType": "uint256",
          "name": "amount",
          "type": "uint256"
        }
      ],
      "name": "borrow",
      "outputs": [],
      "stateMutability": "nonpayable",
      "type": "function"
    },
    {
      "inputs": [
        {
          "internalType": "address",
          "name": "",
          "type": "address"
        }
      ],
      "name": "borrows",
      "outputs": [
        {
          "internalType": "uint256",
          "name": "",
          "type": "uint256"
        }
      ],
      "stateMutability": "view",
      "type": "function"
    },
    {
      "inputs": [],
      "name": "meeteaToken",
      "outputs": [
        {
          "internalType": "contract MeeteaToken",
          "name": "",
          "type": "address"
        }
      ],
      "stateMutability": "view",
      "type": "function"
    },
    {
      "inputs": [],
      "name": "owner",
      "outputs": [
        {
          "internalType": "address",
          "name": "",
          "type": "address"
        }
      ],
      "stateMutability": "view",
      "type": "function"
    },
    {
      "inputs": [],
      "name": "repay",
      "outputs": [],
      "stateMutability": "payable",
      "type": "function"
    },
    {
      "inputs": [],
      "name": "supply",
      "outputs": [],
      "stateMutability": "payable",
      "type": "function"
    },
    {
      "inputs": [
        {
          "internalType": "uint256",
          "name": "amount",
          "type": "uint256"
        }
      ],
      "name": "withdraw",
      "outputs": [],
      "stateMutability": "nonpayable",
      "type": "function"
    },
    {
      "stateMutability": "payable",
      "type": "receive"
    }
  ],
  "bytecode": "0x608060405234801561001057600080fd5b50604051610f2c380380610f2c8339818101604052810190610032919061011c565b806000806101000a81548173ffffffffffffffffffffffffffffffffffffffff021916908373ffffffffffffffffffffffffffffffffffffffff16021790555033600160006101000a81548173ffffffffffffffffffffffffffffffffffffffff021916908373ffffffffffffffffffffffffffffffffffffffff16021790555050610149565b600080fd5b600073ffffffffffffffffffffffffffffffffffffffff82169050919050565b60006100e9826100be565b9050919050565b6100f9816100de565b811461010457600080fd5b50565b600081519050610116816100f0565b92915050565b600060208284031215610132576101316100b9565b5b600061014084828501610107565b91505092915050565b610dd4806101586000396000f3fe60806040526004361061008a5760003560e01c806354a5706f1161005957806354a5706f146101105780638da5cb5b1461014d578063b5e61bff14610178578063c5ebeaec146101a3578063fc72b1ed146101cc57610091565b8063047fc9aa1461009657806327e235e3146100a05780632e1a7d4d146100dd578063402d88831461010657610091565b3661009157005b600080fd5b61009e6101f7565b005b3480156100ac57600080fd5b506100c760048036038101906100c2919061091d565b61033d565b6040516100d49190610963565b60405180910390f35b3480156100e957600080fd5b5061010460048036038101906100ff91906109aa565b610355565b005b61010e6104ba565b005b34801561011c57600080fd5b506101376004803603810190610132919061091d565b610682565b6040516101449190610963565b60405180910390f35b34801561015957600080fd5b5061016261069a565b60405161016f91906109e6565b60405180910390f35b34801561018457600080fd5b5061018d6106c0565b60405161019a9190610a60565b60405180910390f35b3480156101af57600080fd5b506101ca60048036038101906101c591906109aa565b6106e4565b005b3480156101d857600080fd5b506101e16108b5565b6040516101ee9190610963565b60405180910390f35b6000341161023a576040517f08c379a000000000000000000000000000000000000000000000000000000000815260040161023190610ad8565b60405180910390fd5b34600260003373ffffffffffffffffffffffffffffffffffffffff1673ffffffffffffffffffffffffffffffffffffffff16815260200190815260200160002060008282546102899190610b27565b92505081905550600060646005346102a19190610b5b565b6102ab9190610bcc565b905060008054906101000a900473ffffffffffffffffffffffffffffffffffffffff1673ffffffffffffffffffffffffffffffffffffffff166340c10f1933836040518363ffffffff1660e01b8152600401610308929190610bfd565b600060405180830381600087803b15801561032257600080fd5b505af1158015610336573d6000803e3d6000fd5b5050505050565b60026020528060005260406000206000915090505481565b60008111610398576040517f08c379a000000000000000000000000000000000000000000000000000000000815260040161038f90610ad8565b60405180910390fd5b80600260003373ffffffffffffffffffffffffffffffffffffffff1673ffffffffffffffffffffffffffffffffffffffff16815260200190815260200160002054101561041a576040517f08c379a000000000000000000000000000000000000000000000000000000000815260040161041190610c72565b60405180910390fd5b80600260003373ffffffffffffffffffffffffffffffffffffffff1673ffffffffffffffffffffffffffffffffffffffff16815260200190815260200160002060008282546104699190610c92565b925050819055503373ffffffffffffffffffffffffffffffffffffffff166108fc829081150290604051600060405180830381858888f193505050501580156104b6573d6000803e3d6000fd5b5050565b600034116104fd576040517f08c379a00000000000000000000000000000000000000000000000000000000081526004016104f490610ad8565b60405180910390fd5b34600360003373ffffffffffffffffffffffffffffffffffffffff1673ffffffffffffffffffffffffffffffffffffffff16815260200190815260200160002054101561057f576040517f08c379a000000000000000000000000000000000000000000000000000000000815260040161057690610d12565b60405180910390fd5b34600360003373ffffffffffffffffffffffffffffffffffffffff1673ffffffffffffffffffffffffffffffffffffffff16815260200190815260200160002060008282546105ce9190610c92565b92505081905550600060646005346105e69190610b5b565b6105f09190610bcc565b905060008054906101000a900473ffffffffffffffffffffffffffffffffffffffff1673ffffffffffffffffffffffffffffffffffffffff166340c10f1933836040518363ffffffff1660e01b815260040161064d929190610bfd565b600060405180830381600087803b15801561066757600080fd5b505af115801561067b573d6000803e3d6000fd5b5050505050565b60036020528060005260406000206000915090505481565b600160009054906101000a900473ffffffffffffffffffffffffffffffffffffffff1681565b60008054906101000a900473ffffffffffffffffffffffffffffffffffffffff1681565b60008111610727576040517f08c379a000000000000000000000000000000000000000000000000000000000815260040161071e90610ad8565b60405180910390fd5b8047101561076a576040517f08c379a000000000000000000000000000000000000000000000000000000000815260040161076190610d7e565b60405180910390fd5b80600360003373ffffffffffffffffffffffffffffffffffffffff1673ffffffffffffffffffffffffffffffffffffffff16815260200190815260200160002060008282546107b99190610b27565b92505081905550600060646005836107d19190610b5b565b6107db9190610bcc565b905060008054906101000a900473ffffffffffffffffffffffffffffffffffffffff1673ffffffffffffffffffffffffffffffffffffffff166340c10f1933836040518363ffffffff1660e01b8152600401610838929190610bfd565b600060405180830381600087803b15801561085257600080fd5b505af1158015610866573d6000803e3d6000fd5b505050503373ffffffffffffffffffffffffffffffffffffffff166108fc839081150290604051600060405180830381858888f193505050501580156108b0573d6000803e3d6000fd5b505050565b600581565b600080fd5b600073ffffffffffffffffffffffffffffffffffffffff82169050919050565b60006108ea826108bf565b9050919050565b6108fa816108df565b811461090557600080fd5b50565b600081359050610917816108f1565b92915050565b600060208284031215610933576109326108ba565b5b600061094184828501610908565b91505092915050565b6000819050919050565b61095d8161094a565b82525050565b60006020820190506109786000830184610954565b92915050565b6109878161094a565b811461099257600080fd5b50565b6000813590506109a48161097e565b92915050565b6000602082840312156109c0576109bf6108ba565b5b60006109ce84828501610995565b91505092915050565b6109e0816108df565b82525050565b60006020820190506109fb60008301846109d7565b92915050565b6000819050919050565b6000610a26610a21610a1c846108bf565b610a01565b6108bf565b9050919050565b6000610a3882610a0b565b9050919050565b6000610a4a82610a2d565b9050919050565b610a5a81610a3f565b82525050565b6000602082019050610a756000830184610a51565b92915050565b600082825260208201905092915050565b7f416d6f756e74206d7573742062652067726561746572207468616e2030000000600082015250565b6000610ac2601d83610a7b565b9150610acd82610a8c565b602082019050919050565b60006020820190508181036000830152610af181610ab5565b9050919050565b7f4e487b7100000000000000000000000000000000000000000000000000000000600052601160045260246000fd5b6000610b328261094a565b9150610b3d8361094a565b9250828201905080821115610b5557610b54610af8565b5b92915050565b6000610b668261094a565b9150610b718361094a565b9250828202610b7f8161094a565b91508282048414831517610b9657610b95610af8565b5b5092915050565b7f4e487b7100000000000000000000000000000000000000000000000000000000600052601260045260246000fd5b6000610bd78261094a565b9150610be28361094a565b925082610bf257610bf1610b9d565b5b828204905092915050565b6000604082019050610c1260008301856109d7565b610c1f6020830184610954565b9392505050565b7f496e73756666696369656e742062616c616e6365000000000000000000000000600082015250565b6000610c5c601483610a7b565b9150610c6782610c26565b602082019050919050565b60006020820190508181036000830152610c8b81610c4f565b9050919050565b6000610c9d8261094a565b9150610ca88361094a565b9250828203905081811115610cc057610cbf610af8565b5b92915050565b7f496e76616c696420726570617920616d6f756e74000000000000000000000000600082015250565b6000610cfc601483610a7b565b9150610d0782610cc6565b602082019050919050565b60006020820190508181036000830152610d2b81610cef565b9050919050565b7f496e73756666696369656e7420706f6f6c2062616c616e636500000000000000600082015250565b6000610d68601983610a7b565b9150610d7382610d32565b602082019050919050565b60006020820190508181036000830152610d9781610d5b565b905091905056fea2646970667358221220216e6c811760508b431c43e67bdecae0bbd4a5d19c82a8b9d35e4fa2818cfbc464736f6c63430008140033",
  "linkReferences": {},
  "deployedLinkReferences": {}
}