{
  "_format": "hh-sol-artifact-1",
  "contractName": "MeeteaToken",
  "sourceName": "contracts/MeeteaToken.sol",
  "abi": [
    {
      "inputs": [],
      "stateMutability": "nonpayable",
      "type": "constructor"
    },
    {
      "inputs": [
        {
          "internalType": "address",
          "name": "spender",
          "type": "address"
        },
        {
          "internalType": "uint256",
          "name": "allowance",
          "type": "uint256"
        },
        {
          "internalType": "uint256",
          "name": "needed",
          "type": "uint256"
        }
      ],
      "name": "ERC20InsufficientAllowance",
      "type": "error"
    },
    {
      "inputs": [
        {
          "internalType": "address",
          "name": "sender",
          "type": "address"
        },
        {
          "internalType": "uint256",
          "name": "balance",
          "type": "uint256"
        },
        {
          "internalType": "uint256",
          "name": "needed",
          "type": "uint256"
        }
      ],
      "name": "ERC20InsufficientBalance",
      "type": "error"
    },
    {
      "inputs": [
        {
          "internalType": "address",
          "name": "approver",
          "type": "address"
        }
      ],
      "name": "ERC20InvalidApprover",
      "type": "error"
    },
    {
      "inputs": [
        {
          "internalType": "address",
          "name": "receiver",
          "type": "address"
        }
      ],
      "name": "ERC20InvalidReceiver",
      "type": "error"
    },
    {
      "inputs": [
        {
          "internalType": "address",
          "name": "sender",
          "type": "address"
        }
      ],
      "name": "ERC20InvalidSender",
      "type": "error"
    },
    {
      "inputs": [
        {
          "internalType": "address",
          "name": "spender",
          "type": "address"
        }
      ],
      "name": "ERC20InvalidSpender",
      "type": "error"
    },
    {
      "inputs": [
        {
          "internalType": "address",
          "name": "owner",
          "type": "address"
        }
      ],
      "name": "OwnableInvalidOwner",
      "type": "error"
    },
    {
      "inputs": [
        {
          "internalType": "address",
          "name": "account",
          "type": "address"
        }
      ],
      "name": "OwnableUnauthorizedAccount",
      "type": "error"
    },
    {
      "anonymous": false,
      "inputs": [
        {
          "indexed": true,
          "internalType": "address",
          "name": "owner",
          "type": "address"
        },
        {
          "indexed": true,
          "internalType": "address",
          "name": "spender",
          "type": "address"
        },
        {
          "indexed": false,
          "internalType": "uint256",
          "name": "value",
          "type": "uint256"
        }
      ],
      "name": "Approval",
      "type": "event"
    },
    {
      "anonymous": false,
      "inputs": [
        {
          "indexed": true,
          "internalType": "address",
          "name": "previousOwner",
          "type": "address"
        },
        {
          "indexed": true,
          "internalType": "address",
          "name": "newOwner",
          "type": "address"
        }
      ],
      "name": "OwnershipTransferred",
      "type": "event"
    },
    {
      "anonymous": false,
      "inputs": [
        {
          "indexed": true,
          "internalType": "address",
          "name": "from",
          "type": "address"
        },
        {
          "indexed": true,
          "internalType": "address",
          "name": "to",
          "type": "address"
        },
        {
          "indexed": false,
          "internalType": "uint256",
          "name": "value",
          "type": "uint256"
        }
      ],
      "name": "Transfer",
      "type": "event"
    },
    {
      "inputs": [],
      "name": "MAX_SUPPLY",
      "outputs": [
        {
          "internalType": "uint256",
          "name": "",
          "type": "uint256"
        }
      ],
      "stateMutability": "view",
      "type": "function"
    },
    {
      "inputs": [
        {
          "internalType": "address",
          "name": "owner",
          "type": "address"
        },
        {
          "internalType": "address",
          "name": "spender",
          "type": "address"
        }
      ],
      "name": "allowance",
      "outputs": [
        {
          "internalType": "uint256",
          "name": "",
          "type": "uint256"
        }
      ],
      "stateMutability": "view",
      "type": "function"
    },
    {
      "inputs": [
        {
          "internalType": "address",
          "name": "spender",
          "type": "address"
        },
        {
          "internalType": "uint256",
          "name": "value",
          "type": "uint256"
        }
      ],
      "name": "approve",
      "outputs": [
        {
          "internalType": "bool",
          "name": "",
          "type": "bool"
        }
      ],
      "stateMutability": "nonpayable",
      "type": "function"
    },
    {
      "inputs": [
        {
          "internalType": "address",
          "name": "account",
          "type": "address"
        }
      ],
      "name": "balanceOf",
      "outputs": [
        {
          "internalType": "uint256",
          "name": "",
          "type": "uint256"
        }
      ],
      "stateMutability": "view",
      "type": "function"
    },
    {
      "inputs": [],
      "name": "decimals",
      "outputs": [
        {
          "internalType": "uint8",
          "name": "",
          "type": "uint8"
        }
      ],
      "stateMutability": "view",
      "type": "function"
    },
    {
      "inputs": [
        {
          "internalType": "address",
          "name": "to",
          "type": "address"
        },
        {
          "internalType": "uint256",
          "name": "amount",
          "type": "uint256"
        }
      ],
      "name": "mint",
      "outputs": [],
      "stateMutability": "nonpayable",
      "type": "function"
    },
    {
      "inputs": [],
      "name": "name",
      "outputs": [
        {
          "internalType": "string",
          "name": "",
          "type": "string"
        }
      ],
      "stateMutability": "view",
      "type": "function"
    },
    {
      "inputs": [],
      "name": "owner",
      "outputs": [
        {
          "internalType": "address",
          "name": "",
          "type": "address"
        }
      ],
      "stateMutability": "view",
      "type": "function"
    },
    {
      "inputs": [],
      "name": "renounceOwnership",
      "outputs": [],
      "stateMutability": "nonpayable",
      "type": "function"
    },
    {
      "inputs": [],
      "name": "symbol",
      "outputs": [
        {
          "internalType": "string",
          "name": "",
          "type": "string"
        }
      ],
      "stateMutability": "view",
      "type": "function"
    },
    {
      "inputs": [],
      "name": "totalSupply",
      "outputs": [
        {
          "internalType": "uint256",
          "name": "",
          "type": "uint256"
        }
      ],
      "stateMutability": "view",
      "type": "function"
    },
    {
      "inputs": [
        {
          "internalType": "address",
          "name": "to",
          "type": "address"
        },
        {
          "internalType": "uint256",
          "name": "value",
          "type": "uint256"
        }
      ],
      "name": "transfer",
      "outputs": [
        {
          "internalType": "bool",
          "name": "",
          "type": "bool"
        }
      ],
      "stateMutability": "nonpayable",
      "type": "function"
    },
    {
      "inputs": [
        {
          "internalType": "address",
          "name": "from",
          "type": "address"
        },
        {
          "internalType": "address",
          "name": "to",
          "type": "address"
        },
        {
          "internalType": "uint256",
          "name": "value",
          "type": "uint256"
        }
      ],
      "name": "transferFrom",
      "outputs": [
        {
          "internalType": "bool",
          "name": "",
          "type": "bool"
        }
      ],
      "stateMutability": "nonpayable",
      "type": "function"
    },
    {
      "inputs": [
        {
          "internalType": "address",
          "name": "newOwner",
          "type": "address"
        }
      ],
      "name": "transferOwnership",
      "outputs": [],
      "stateMutability": "nonpayable",
      "type": "function"
    }
  ],
  "bytecode": "0x60806040523480156200001157600080fd5b50336040518060400160405280600681526020017f4d656574656100000000000000000000000000000000000000000000000000008152506040518060400160405280600481526020017f4d5445410000000000000000000000000000000000000000000000000000000081525081600390816200009091906200074d565b508060049081620000a291906200074d565b505050600073ffffffffffffffffffffffffffffffffffffffff168173ffffffffffffffffffffffffffffffffffffffff16036200011a5760006040517f1e4fbdf700000000000000000000000000000000000000000000000000000000815260040162000111919062000879565b60405180910390fd5b6200012b816200015060201b60201c565b506200014a336b033b2e3c9fd0803ce80000006200021660201b60201c565b6200096b565b6000600560009054906101000a900473ffffffffffffffffffffffffffffffffffffffff16905081600560006101000a81548173ffffffffffffffffffffffffffffffffffffffff021916908373ffffffffffffffffffffffffffffffffffffffff1602179055508173ffffffffffffffffffffffffffffffffffffffff168173ffffffffffffffffffffffffffffffffffffffff167f8be0079c531659141344cd1fd0a4f28419497f9722a3daafe3b4186f6b6457e060405160405180910390a35050565b600073ffffffffffffffffffffffffffffffffffffffff168273ffffffffffffffffffffffffffffffffffffffff16036200028b5760006040517fec442f0500000000000000000000000000000000000000000000000000000000815260040162000282919062000879565b60405180910390fd5b6200029f60008383620002a360201b60201c565b5050565b600073ffffffffffffffffffffffffffffffffffffffff168373ffffffffffffffffffffffffffffffffffffffff1603620002f9578060026000828254620002ec9190620008c5565b92505081905550620003cf565b60008060008573ffffffffffffffffffffffffffffffffffffffff1673ffffffffffffffffffffffffffffffffffffffff1681526020019081526020016000205490508181101562000388578381836040517fe450d38c0000000000000000000000000000000000000000000000000000000081526004016200037f9392919062000911565b60405180910390fd5b8181036000808673ffffffffffffffffffffffffffffffffffffffff1673ffffffffffffffffffffffffffffffffffffffff16815260200190815260200160002081905550505b600073ffffffffffffffffffffffffffffffffffffffff168273ffffffffffffffffffffffffffffffffffffffff16036200041a578060026000828254039250508190555062000467565b806000808473ffffffffffffffffffffffffffffffffffffffff1673ffffffffffffffffffffffffffffffffffffffff168152602001908152602001600020600082825401925050819055505b8173ffffffffffffffffffffffffffffffffffffffff168373ffffffffffffffffffffffffffffffffffffffff167fddf252ad1be2c89b69c2b068fc378daa952ba7f163c4a11628f55a4df523b3ef83604051620004c691906200094e565b60405180910390a3505050565b600081519050919050565b7f4e487b7100000000000000000000000000000000000000000000000000000000600052604160045260246000fd5b7f4e487b7100000000000000000000000000000000000000000000000000000000600052602260045260246000fd5b600060028204905060018216806200055557607f821691505b6020821081036200056b576200056a6200050d565b5b50919050565b60008190508160005260206000209050919050565b60006020601f8301049050919050565b600082821b905092915050565b600060088302620005d57fffffffffffffffffffffffffffffffffffffffffffffffffffffffffffffffff8262000596565b620005e1868362000596565b95508019841693508086168417925050509392505050565b6000819050919050565b6000819050919050565b60006200062e620006286200062284620005f9565b62000603565b620005f9565b9050919050565b6000819050919050565b6200064a836200060d565b62000662620006598262000635565b848454620005a3565b825550505050565b600090565b620006796200066a565b620006868184846200063f565b505050565b5b81811015620006ae57620006a26000826200066f565b6001810190506200068c565b5050565b601f821115620006fd57620006c78162000571565b620006d28462000586565b81016020851015620006e2578190505b620006fa620006f18562000586565b8301826200068b565b50505b505050565b600082821c905092915050565b6000620007226000198460080262000702565b1980831691505092915050565b60006200073d83836200070f565b9150826002028217905092915050565b6200075882620004d3565b67ffffffffffffffff811115620007745762000773620004de565b5b6200078082546200053c565b6200078d828285620006b2565b600060209050601f831160018114620007c55760008415620007b0578287015190505b620007bc85826200072f565b8655506200082c565b601f198416620007d58662000571565b60005b82811015620007ff57848901518255600182019150602085019450602081019050620007d8565b868310156200081f57848901516200081b601f8916826200070f565b8355505b6001600288020188555050505b505050505050565b600073ffffffffffffffffffffffffffffffffffffffff82169050919050565b6000620008618262000834565b9050919050565b620008738162000854565b82525050565b600060208201905062000890600083018462000868565b92915050565b7f4e487b7100000000000000000000000000000000000000000000000000000000600052601160045260246000fd5b6000620008d282620005f9565b9150620008df83620005f9565b9250828201905080821115620008fa57620008f962000896565b5b92915050565b6200090b81620005f9565b82525050565b600060608201905062000928600083018662000868565b62000937602083018562000900565b62000946604083018462000900565b949350505050565b600060208201905062000965600083018462000900565b92915050565b6112b1806200097b6000396000f3fe608060405234801561001057600080fd5b50600436106100ea5760003560e01c806370a082311161008c57806395d89b411161006657806395d89b411461023b578063a9059cbb14610259578063dd62ed3e14610289578063f2fde38b146102b9576100ea565b806370a08231146101e3578063715018a6146102135780638da5cb5b1461021d576100ea565b806323b872dd116100c857806323b872dd1461015b578063313ce5671461018b57806332cb6b0c146101a957806340c10f19146101c7576100ea565b806306fdde03146100ef578063095ea7b31461010d57806318160ddd1461013d575b600080fd5b6100f76102d5565b6040516101049190610e99565b60405180910390f35b61012760048036038101906101229190610f54565b610367565b6040516101349190610faf565b60405180910390f35b61014561038a565b6040516101529190610fd9565b60405180910390f35b61017560048036038101906101709190610ff4565b610394565b6040516101829190610faf565b60405180910390f35b6101936103c3565b6040516101a09190611063565b60405180910390f35b6101b16103cc565b6040516101be9190610fd9565b60405180910390f35b6101e160048036038101906101dc9190610f54565b6103dc565b005b6101fd60048036038101906101f8919061107e565b610453565b60405161020a9190610fd9565b60405180910390f35b61021b61049b565b005b6102256104af565b60405161023291906110ba565b60405180910390f35b6102436104d9565b6040516102509190610e99565b60405180910390f35b610273600480360381019061026e9190610f54565b61056b565b6040516102809190610faf565b60405180910390f35b6102a3600480360381019061029e91906110d5565b61058e565b6040516102b09190610fd9565b60405180910390f35b6102d360048036038101906102ce919061107e565b610615565b005b6060600380546102e490611144565b80601f016020809104026020016040519081016040528092919081815260200182805461031090611144565b801561035d5780601f106103325761010080835404028352916020019161035d565b820191906000526020600020905b81548152906001019060200180831161034057829003601f168201915b5050505050905090565b60008061037261069b565b905061037f8185856106a3565b600191505092915050565b6000600254905090565b60008061039f61069b565b90506103ac8582856106b5565b6103b785858561074a565b60019150509392505050565b60006012905090565b6b033b2e3c9fd0803ce800000081565b6103e461083e565b6b033b2e3c9fd0803ce8000000816103fa61038a565b61040491906111a4565b1115610445576040517f08c379a000000000000000000000000000000000000000000000000000000000815260040161043c90611224565b60405180910390fd5b61044f82826108c5565b5050565b60008060008373ffffffffffffffffffffffffffffffffffffffff1673ffffffffffffffffffffffffffffffffffffffff168152602001908152602001600020549050919050565b6104a361083e565b6104ad6000610947565b565b6000600560009054906101000a900473ffffffffffffffffffffffffffffffffffffffff16905090565b6060600480546104e890611144565b80601f016020809104026020016040519081016040528092919081815260200182805461051490611144565b80156105615780601f1061053657610100808354040283529160200191610561565b820191906000526020600020905b81548152906001019060200180831161054457829003601f168201915b5050505050905090565b60008061057661069b565b905061058381858561074a565b600191505092915050565b6000600160008473ffffffffffffffffffffffffffffffffffffffff1673ffffffffffffffffffffffffffffffffffffffff16815260200190815260200160002060008373ffffffffffffffffffffffffffffffffffffffff1673ffffffffffffffffffffffffffffffffffffffff16815260200190815260200160002054905092915050565b61061d61083e565b600073ffffffffffffffffffffffffffffffffffffffff168173ffffffffffffffffffffffffffffffffffffffff160361068f5760006040517f1e4fbdf700000000000000000000000000000000000000000000000000000000815260040161068691906110ba565b60405180910390fd5b61069881610947565b50565b600033905090565b6106b08383836001610a0d565b505050565b60006106c1848461058e565b90507fffffffffffffffffffffffffffffffffffffffffffffffffffffffffffffffff8110156107445781811015610734578281836040517ffb8f41b200000000000000000000000000000000000000000000000000000000815260040161072b93929190611244565b60405180910390fd5b61074384848484036000610a0d565b5b50505050565b600073ffffffffffffffffffffffffffffffffffffffff168373ffffffffffffffffffffffffffffffffffffffff16036107bc5760006040517f96c6fd1e0000000000000000000000000000000000000000000000000000000081526004016107b391906110ba565b60405180910390fd5b600073ffffffffffffffffffffffffffffffffffffffff168273ffffffffffffffffffffffffffffffffffffffff160361082e5760006040517fec442f0500000000000000000000000000000000000000000000000000000000815260040161082591906110ba565b60405180910390fd5b610839838383610be4565b505050565b61084661069b565b73ffffffffffffffffffffffffffffffffffffffff166108646104af565b73ffffffffffffffffffffffffffffffffffffffff16146108c35761088761069b565b6040517f118cdaa70000000000000000000000000000000000000000000000000000000081526004016108ba91906110ba565b60405180910390fd5b565b600073ffffffffffffffffffffffffffffffffffffffff168273ffffffffffffffffffffffffffffffffffffffff16036109375760006040517fec442f0500000000000000000000000000000000000000000000000000000000815260040161092e91906110ba565b60405180910390fd5b61094360008383610be4565b5050565b6000600560009054906101000a900473ffffffffffffffffffffffffffffffffffffffff16905081600560006101000a81548173ffffffffffffffffffffffffffffffffffffffff021916908373ffffffffffffffffffffffffffffffffffffffff1602179055508173ffffffffffffffffffffffffffffffffffffffff168173ffffffffffffffffffffffffffffffffffffffff167f8be0079c531659141344cd1fd0a4f28419497f9722a3daafe3b4186f6b6457e060405160405180910390a35050565b600073ffffffffffffffffffffffffffffffffffffffff168473ffffffffffffffffffffffffffffffffffffffff1603610a7f5760006040517fe602df05000000000000000000000000000000000000000000000000000000008152600401610a7691906110ba565b60405180910390fd5b600073ffffffffffffffffffffffffffffffffffffffff168373ffffffffffffffffffffffffffffffffffffffff1603610af15760006040517f94280d62000000000000000000000000000000000000000000000000000000008152600401610ae891906110ba565b60405180910390fd5b81600160008673ffffffffffffffffffffffffffffffffffffffff1673ffffffffffffffffffffffffffffffffffffffff16815260200190815260200160002060008573ffffffffffffffffffffffffffffffffffffffff1673ffffffffffffffffffffffffffffffffffffffff168152602001908152602001600020819055508015610bde578273ffffffffffffffffffffffffffffffffffffffff168473ffffffffffffffffffffffffffffffffffffffff167f8c5be1e5ebec7d5bd14f71427d1e84f3dd0314c0f7b2291e5b200ac8c7c3b92584604051610bd59190610fd9565b60405180910390a35b50505050565b600073ffffffffffffffffffffffffffffffffffffffff168373ffffffffffffffffffffffffffffffffffffffff1603610c36578060026000828254610c2a91906111a4565b92505081905550610d09565b60008060008573ffffffffffffffffffffffffffffffffffffffff1673ffffffffffffffffffffffffffffffffffffffff16815260200190815260200160002054905081811015610cc2578381836040517fe450d38c000000000000000000000000000000000000000000000000000000008152600401610cb993929190611244565b60405180910390fd5b8181036000808673ffffffffffffffffffffffffffffffffffffffff1673ffffffffffffffffffffffffffffffffffffffff16815260200190815260200160002081905550505b600073ffffffffffffffffffffffffffffffffffffffff168273ffffffffffffffffffffffffffffffffffffffff1603610d525780600260008282540392505081905550610d9f565b806000808473ffffffffffffffffffffffffffffffffffffffff1673ffffffffffffffffffffffffffffffffffffffff168152602001908152602001600020600082825401925050819055505b8173ffffffffffffffffffffffffffffffffffffffff168373ffffffffffffffffffffffffffffffffffffffff167fddf252ad1be2c89b69c2b068fc378daa952ba7f163c4a11628f55a4df523b3ef83604051610dfc9190610fd9565b60405180910390a3505050565b600081519050919050565b600082825260208201905092915050565b60005b83811015610e43578082015181840152602081019050610e28565b60008484015250505050565b6000601f19601f8301169050919050565b6000610e6b82610e09565b610e758185610e14565b9350610e85818560208601610e25565b610e8e81610e4f565b840191505092915050565b60006020820190508181036000830152610eb38184610e60565b905092915050565b600080fd5b600073ffffffffffffffffffffffffffffffffffffffff82169050919050565b6000610eeb82610ec0565b9050919050565b610efb81610ee0565b8114610f0657600080fd5b50565b600081359050610f1881610ef2565b92915050565b6000819050919050565b610f3181610f1e565b8114610f3c57600080fd5b50565b600081359050610f4e81610f28565b92915050565b60008060408385031215610f6b57610f6a610ebb565b5b6000610f7985828601610f09565b9250506020610f8a85828601610f3f565b9150509250929050565b60008115159050919050565b610fa981610f94565b82525050565b6000602082019050610fc46000830184610fa0565b92915050565b610fd381610f1e565b82525050565b6000602082019050610fee6000830184610fca565b92915050565b60008060006060848603121561100d5761100c610ebb565b5b600061101b86828701610f09565b935050602061102c86828701610f09565b925050604061103d86828701610f3f565b9150509250925092565b600060ff82169050919050565b61105d81611047565b82525050565b60006020820190506110786000830184611054565b92915050565b60006020828403121561109457611093610ebb565b5b60006110a284828501610f09565b91505092915050565b6110b481610ee0565b82525050565b60006020820190506110cf60008301846110ab565b92915050565b600080604083850312156110ec576110eb610ebb565b5b60006110fa85828601610f09565b925050602061110b85828601610f09565b9150509250929050565b7f4e487b7100000000000000000000000000000000000000000000000000000000600052602260045260246000fd5b6000600282049050600182168061115c57607f821691505b60208210810361116f5761116e611115565b5b50919050565b7f4e487b7100000000000000000000000000000000000000000000000000000000600052601160045260246000fd5b60006111af82610f1e565b91506111ba83610f1e565b92508282019050808211156111d2576111d1611175565b5b92915050565b7f45786365656473206d617820737570706c790000000000000000000000000000600082015250565b600061120e601283610e14565b9150611219826111d8565b602082019050919050565b6000602082019050818103600083015261123d81611201565b9050919050565b600060608201905061125960008301866110ab565b6112666020830185610fca565b6112736040830184610fca565b94935050505056fea264697066735822122015fe66316402d5f13064cca78f4b319e08dff10ace7059e9a5afd101a3e3bdba64736f6c63430008140033",
  "linkReferences": {},
  "deployedLinkReferences": {}
}